:020000040000fa
:080000000002040000000000f2
:020000040000fa
:0400080038040000b8
:020000040000fa
:04000c0038040000b4
:020000040000fa
:0400100038040000b0
:020000040000fa
:0400140038040000ac
:020000040000fa
:0400180038040000a8
:020000040000fa
:04001c0038040000a4
:020000040000fa
:0400200038040000a0
:020000040000fa
:04002400380400009c
:020000040000fa
:040028003804000098
:020000040000fa
:04002c003804000094
:020000040000fa
:040030003804000090
:020000040000fa
:04003400fa020000cc
:020000040000fa
:040038003804000088
:020000040000fa
:04003c003804000084
:020000040000fa
:040040003804000080
:020000040000fa
:04004400380400007c
:020000040000fa
:040048001c03000095
:020000040000fa
:04004c003804000074
:020000040000fa
:040050003804000070
:020000040000fa
:04005400d6030000cf
:020000040000fa
:040058000c04000094
:020000040000fa
:04005c00b0030000ed
:020000040000fa
:040060003804000060
:020000040000fa
:04006400380400005c
:020000040000fa
:040068003804000058
:020000040000fa
:04006c003804000054
:020000040000fa
:040070003804000050
:020000040000fa
:04007400380400004c
:020000040000fa
:040078003804000048
:020000040000fa
:04007c003804000044
:020000040000fa
:040080003804000040
:020000040000fa
:04008400380400003c
:020000040000fa
:040088003804000038
:020000040000fa
:04008c003804000034
:020000040000fa
:040090003804000030
:020000040000fa
:0400940068030000fd
:020000040000fa
:040098003804000028
:020000040000fa
:04009c003804000024
:020000040000fa
:0400a0003804000020
:020000040000fa
:0400a400380400001c
:020000040000fa
:0400a8003804000018
:020000040000fa
:0400ac003804000014
:020000040000fa
:0400b0003804000010
:020000040000fa
:0400b400380400000c
:020000040000fa
:0400b8003804000008
:020000040000fa
:0400bc003804000004
:020000040000fa
:0400c0003804000000
:020000040000fa
:0400c40038040000fc
:020000040000fa
:0400c80038040000f8
:020000040000fa
:0400cc0038040000f4
:020000040000fa
:0400d00038040000f0
:020000040000fa
:0400d40038040000ec
:020000040000fa
:0400d80038040000e8
:020000040000fa
:0400dc0038040000e4
:020000040000fa
:0400e00038040000e0
:020000040000fa
:0400e40038040000dc
:020000040000fa
:0400e80038040000d8
:020000040000fa
:0400ec0038040000d4
:020000040000fa
:0400f00038040000d0
:020000040000fa
:0400f40038040000cc
:020000040000fa
:0400f80038040000c8
:020000040000fa
:0400fc0038040000c4
:020000040000fa
:0401000038040000bf
:020000040000fa
:0401040038040000bb
:020000040000fa
:0401080038040000b7
:020000040000fa
:04010c0038040000b3
:020000040000fa
:0401100038040000af
:020000040000fa
:0401140038040000ab
:020000040000fa
:0401180038040000a7
:020000040000fa
:04011c0038040000a3
:020000040000fa
:04012000380400009f
:020000040000fa
:04012400380400009b
:020000040000fa
:040128003804000097
:020000040000fa
:04012c003804000093
:020000040000fa
:04013000380400008f
:020000040000fa
:04013400380400008b
:020000040000fa
:040138003804000087
:020000040000fa
:04013c003804000083
:020000040000fa
:04014000380400007f
:020000040000fa
:04014400380400007b
:020000040000fa
:040148003804000077
:020000040000fa
:04014c003804000073
:020000040000fa
:04015000380400006f
:020000040000fa
:04015400380400006b
:020000040000fa
:040158003804000067
:020000040000fa
:04015c003804000063
:020000040000fa
:04016000380400005f
:020000040000fa
:04016400380400005b
:020000040000fa
:040168003804000057
:020000040000fa
:04016c003804000053
:020000040000fa
:04017000380400004f
:020000040000fa
:04017400380400004b
:020000040000fa
:040178003804000047
:020000040000fa
:04017c003804000043
:020000040000fa
:04018000380400003f
:020000040000fa
:04018400380400003b
:020000040000fa
:040188003804000037
:020000040000fa
:04018c003804000033
:020000040000fa
:04019000380400002f
:020000040000fa
:04019400380400002b
:020000040000fa
:040198003804000027
:020000040000fa
:04019c003804000023
:020000040000fa
:0401a000380400001f
:020000040000fa
:0401a400380400001b
:020000040000fa
:0401a8003804000017
:020000040000fa
:0401ac003804000013
:020000040000fa
:0401b000380400000f
:020000040000fa
:0401b400380400000b
:020000040000fa
:0401b8003804000007
:020000040000fa
:0401bc003804000003
:020000040000fa
:0401c00038040000ff
:020000040000fa
:0401c40038040000fb
:020000040000fa
:0401c80038040000f7
:020000040000fa
:0401cc0038040000f3
:020000040000fa
:0401d00038040000ef
:020000040000fa
:0401d40038040000eb
:020000040000fa
:0401d80038040000e7
:020000040000fa
:0401dc0038040000e3
:020000040000fa
:0401e00038040000df
:020000040000fa
:0401e40038040000db
:020000040000fa
:0401e80038040000d7
:020000040000fa
:0401ec0038040000d3
:020000040000fa
:0401f00038040000cf
:020000040000fa
:0401f40038040000cb
:020000040000fa
:0401f80038040000c7
:020000040000fa
:0401fc0038040000c3
:020000040000fa
:0402000038040000be
:020000040000fa
:0402040038040000ba
:020000040000fa
:0402080038040000b6
:020000040000fa
:04020c0038040000b2
:020000040000fa
:0402100038040000ae
:020000040000fa
:0402140038040000aa
:020000040000fa
:0402180038040000a6
:020000040000fa
:04021c0038040000a2
:020000040000fa
:04022000380400009e
:020000040000fa
:04022400380400009a
:020000040000fa
:040228003804000096
:020000040000fa
:04022c003804000092
:020000040000fa
:04023000380400008e
:020000040000fa
:04023400380400008a
:020000040000fa
:040238003804000086
:020000040000fa
:04023c003804000082
:020000040000fa
:04024000380400007e
:020000040000fa
:04024400380400007a
:020000040000fa
:040248003804000076
:020000040000fa
:04024c003804000072
:020000040000fa
:04025000380400006e
:020000040000fa
:04025400380400006a
:020000040000fa
:040258003804000066
:020000040000fa
:04025c003804000062
:020000040000fa
:04026000380400005e
:020000040000fa
:04026400380400005a
:020000040000fa
:100400004f0d21000eff27000e01880000000000a4
:10041000000020000000e000020032000001200087
:100420002002880014000700130107000000e0000c
:1004300003003a00e0c7210001002000020037005d
:100440000000200001002000810f70000100320038
:100450000f000700000020000000e0000200320052
:1004600000000200000000008c0c020000000000f0
:100470000040da000000fe00600020000000e00004
:1004800002003200002020009001880000000600d9
:10049000a1028800800478000000eb001f003700f4
:1004a000e284440054a0b4009905ba00e2844400f8
:1004b00054a0b4009906ba00e284440054a0b400e9
:1004c0000006eb00476fde00fd07b200ae018800ba
:1004d000636ce10003003a000ad801000000eb0061
:1004e0000e003700606ce10008003a00004deb00a0
:1004f0000a05e800020039003420ec000af0a000f0
:100500008b05e900f9ff3e00040037006168e10057
:10051000010032000086eb000b00070019c7ba008b
:100520000e04e0001905ba0003003a000a00e000da
:10053000dbff3a0000000600fe07b200ae028800b2
:100540008a047800f5ff37000cd0a300e20f4d00bd
:100550001c003b0089027800354dba000a05e8000e
:10056000020039003420ec000af0a0008b05e900fd
:100570000f003200254dba000a05e80002003900dc
:100580003420ec000af0a0008b05e90008003200de
:100590000c00e0000600320015cdba000a05e800a4
:1005a000020039003420ec000af0a0008b05e900bd
:1005b0008984e80054a0b4000b00e000e2ff3a0098
:1005c000000006009902ba00055d78008b05e9007d
:1005d000f7ff3200c82ade00055d78008b05e900d0
:1005e000f3ff32000c00e000f1ff320019ddba0029
:1005f000eeff37003600f800809fbe00829fbe00ed
:10060000849fbe00869fbe000000fa000068a9001b
:100610009a090700eb0b0700000000000080fa00b9
:100620004f03be004f02be004f01be004f00be0090
:100630003600f900004006003600f800809fbe003a
:10064000829fbe00849fbe00869fbe000000fa000d
:100650000108a9001ed0bf000004e0000b003a0012
:100660000041eb0000002000011a2400810a07006d
:1006700012c0b30000002000011a24007d0a070008
:1006800010c0b3001ef0b700090037000041eb00b6
:1006900000002000011a2c00760a070012c0b300e7
:1006a00000002000011a2c00720a07001e70ef00e3
:1006b000000000000080fa004f03be004f02be00a1
:1006c0004f01be004f00be003600f900004006009a
:1006d0003600f800809fbe00829fbe00849fbe004f
:1006e000869fbe000000fa000368a9009073800096
:1006f0000000d10061406000e14f500002003a006c
:100700001a30ef001c30ef00d2808000e3808000c0
:1007100010002000010020000200400083804800fb
:10072000d0808800e180880099050700040ea800a9
:10073000052ea80095eea800054ea800746ea8002e
:10074000000000000080fa004f03be004f02be0010
:100750004f01be004f00be003600f9000040060009
:10076000801f78000000fa0001a8a900001880008e
:10077000508688001018800060868800201880004d
:1007800070868800301880008086880040188000bd
:100790009086880010c0b30021f0b7000000000070
:1007a0000080fa004f00780000400600801f7800ab
:1007b0000000fa000168a900101180004200de006c
:1007c00061406000e14f500001003a002242a90060
:1007d000101180000000d10061406000e14f500026
:1007e00004003a002222a9000200370030118000e4
:1007f00020118800101180000040780061406000e6
:10080000e14f5000f9ff3200000000000080fa00c4
:100810004f007800004006003600f800809fbe00c0
:10082000829fbe00849fbe00869fbe000000fa002b
:100830000188a900b1808000a0808000808f5000d6
:1008400002003200fa0a0700010037001870ef00ba
:10085000000000000080fa004f03be004f02be00ff
:100860004f01be004f00be003600f90000400600f8
:100870000040da000000fe00000005001400200027
:10088000aa033700f4ff2f00a80337000001be00c1
:100890003c0007000470a70003f0a1006509b10047
:1008a000160032000d0035006828e1000600350012
:1008b000f0ff2f00f1ff27000300e00013003b00d2
:1008c0000100280000000500000040008180480071
:1008d0008502e900fcff3a0008003700f88f42006b
:1008e00002003c008000eb00000005008100d10008
:1008f0000080d3008502e800fcff3a000300e0001e
:1009000002003b0060001000e080180000000600bc
:100910000001be001b0007000470a70003f0a10047
:1009200003f8a30013003a006509b100100032007b
:10093000090035006928e1000200350001002800a7
:100940000000050000004000818048008502e900a9
:10095000fcff3a0000000600f88f42000500350059
:100960008100d1000080d3008502e800fcff3a003e
:10097000000006008000eb00000005006011b800d8
:1009800085033700c70ade00f107b200f50fb20099
:1009900008003200e1cf4200020032000170a000e6
:1009a00024000500810f70000100320004080500da
:1009b00044000500810f700002003a001400050099
:1009c0008502e9000000400081c04800fcff3b00b8
:1009d0000170a0002400050007f8270007836100cc
:1009e0000638e10004003a00f70720008783610021
:1009f0008703710001003a0003f0a200889fbe0047
:100a00008a9fbe008c9fbe00470ade000480a100c2
:100a1000c71ade000580a1000700280007856000d6
:100a200087856100f70f20000720e1009e0032005b
:100a30000728e1009c003200010678000400e00075
:100a4000b4003200f7072000878060000170a0002a
:100a50000500e000c0003200f70720008781610038
:100a60000370a000050652000f003a000b50e10091
:100a70000b0032000308e10002003a000200e1002e
:100a80007e003200020450008384580004003100cc
:100a90000001fd008101fd008402fd008a05fd00ca
:100aa0006044b800210037000520e10005003d004a
:100ab0000001fd008101fd008402fd008a05fd00aa
:100ac000050652007a60e100050035000170a100c2
:100ad0004722dd00848070008a8070006300370048
:100ae0006044b800ef02660007ff2f0007066600ab
:100af0000500e00006003400f08312008714dd00da
:100b00000511de00071bdd00060171008519de00fe
:100b10007060e10005003500090478008204780067
:100b2000030178008001eb00700656000b50e100d5
:100b300003003a00020040008380480004003700b0
:100b400060041400e0841c000200580083805800f8
:100b50000188a300060032008100d1000080d3008c
:100b60008984d3000884d3000402e80027003700fa
:100b70000178a30025003a000100e00003003200e4
:100b80008186cf00698656000a0037008c0020005d
:100b90000000e00004003a000900780088047800b2
:100ba0000004eb00700252008086cf000d06460064
:100bb0000c06e9007060e100060035008000780056
:100bc00009007800880478000004eb0070065600e5
:100bd000700252000c00e0000c0034008c08dd00b4
:100be000f00316000703de00868070000c00dd00b5
:100bf000074bde00060070008c4cdd000743de0072
:100c0000868474000c44dd000c0252006120e10077
:100c10002000350061016000070028008781640022
:100c2000f7ff270087836400070374000300e000d8
:100c30000600320082037300040032000000e80066
:100c4000e08048000188a3000e003a00f70f200062
:100c50000720e1004a003d000170a1004722dd00ad
:100c6000810072008a8070000000be004f06be0046
:100c70004f05be004f04be00000006006000b80033
:100c8000faff37008100d1000080d3000402e800a1
:100c9000eeff37000401780089017400a10107000c
:100ca0008a807000f1ff3700f70107000702780023
:100cb0000001fd008101fd00f301070087027800bb
:100cc000850372000778a300040032000001fd00d4
:100cd0008101fd0006020700e4ff37008503620082
:100ce0000768a300080032000b50e1000300320047
:100cf000f0ff2f00f1ff2700dcff37000001fd00af
:100d00008101fd00d9ff37000468a300d7ff32003e
:100d1000faff3700f8ff2700888360000b003a00d5
:100d20000000e00009003a0083036400828373003e
:100d3000020032000200be00ccff37000b50e10081
:100d4000ceff3a000200be00c8ff370014002000aa
:100d5000810064003eff3700f8ff270088836100b0
:100d600004003a000200e00002003a008c00780023
:100d7000beff3700150020008301640039ff3700f3
:100d800001f827000000200081007500b7ff370040
:100d9000889fbe008a9fbe008c9fbe001b00200063
:100da0000202be00058668000600280006066600ee
:100db0004709de00f20fb200820032000243e80071
:100dc00080003200c729de00f30fb2007d00320040
:100dd0000343e8007b003200f107b2000170a0007d
:100de000f507b2000570a000c708dd004903de006a
:100df000868070004700dd00c72add004923de0041
:100e0000868272004722dd00030551000403500072
:100e100085835800030031000000400081804800b5
:100e20000a05e9008c1f78008a9fbe00040050006c
:100e3000858058000402420085824a00000040007c
:100e4000818048000005eb000004be006033b8005c
:100e50000406be000d48e1005600310011000900f3
:100e60004dccd8000c01b8000d02b80084814100bf
:100e700060824a008283530003045c0084845c0027
:100e800060055d000a00e00025003a00800578005a
:100e90000d40e1004900310088007800070078002b
:100ea000110009004d88d8000c01b8000d02b800ef
:100eb0008481410060824a006003110083835b00eb
:100ec00004045c00e0845c000900e00021003a00ba
:100ed0004f01be000300e0002b003200e301600080
:100ee000070673008c8171000100320064007000fd
:100ef0004200de004e5edd000c007000c258de00d5
:100f000001e0a00083010700cf017800818071001b
:100f10004f06be004f05be004f04be000000060095
:100f20008c8343000d044c00e0844c0060054d00b0
:100f30000000e9000a00e000d4ff32008c83430087
:100f40000d044c00e0844c0060054d000000e900f9
:100f5000ceff37000c0343008d834b0060044c0030
:100f6000e0844c000000e9000900e000d8ff3200f6
:100f70000c0343008d834b0060044c00e0844c0064
:100f80000000e900d2ff37004200de004e5edd00c7
:100f90000c007000c258de0001e0a000cf01780014
:100fa0000300e000daff320060001000e08018006b
:100fb000d7ff3700f0ff2f00aaff3700f0ff2f0008
:100fc000b9ff37000404be002f0107008706780030
:100fd0000004fd008104fd002b010700078366006b
:100fe0000678a300030032000960a7000800be00d5
:100ff0002c0037000d78a300020032000800be006c
:10100000280037000778a30026003a0001f0a1006d
:1010100009f0a1000668a30003003200f1ff2700d9
:10102000f0ff2f00baff37000d68a3000300320065
:101030000800be008c807000b5ff37000768a30071
:1010400007003a000648a30003003200f1ff270022
:10105000f0ff2f00aeff37000d48a3000300320061
:101060006000b8008c807000a9ff37000748a3001b
:101070000400320001f82700000020008c8070007e
:10108000a3ff3700760107000004fd008104fd0086
:1010900002057800720107000802be008a0178008c
:1010a00059ff37000160a000120220001281880061
:1010b00097ff37000100e000120032000500e00059
:1010c00010003200889fbe008a9fbe008c9fbe0029
:1010d0000006eb0001f8a3000300320060001000de
:1010e000e08018000cf0a00005f8a3000300320017
:1010f00060021200e0821a000cf0a2008005eb00f2
:1011000041ff37006000b80002000500038368005b
:101110000700280007036300470ade000480a100df
:10112000c71ade000580a100f70f20000720e100ac
:10113000420032000728e10040003200889fbe00d4
:101140008a9fbe008c1f7800f107b200f307b2003f
:101150000400e000640032000170a0000500e0001f
:10116000680032000370a00085054200eb07b10063
:101170000204b8000302b8008484440060854a0079
:10118000020ab800848444000a854a00030ab800b1
:1011900004054500040033000804d0008984d2000f
:1011a0000a85d2008b05e9006158e1003d00350059
:1011b00002102000090161000308200089816100fc
:1011c000f70720008783640008867300c84cde00a0
:1011d000c853dd00878474004855de000300e0003a
:1011e0000600320082037600040032008904e80021
:1011f00060054d000a88a3000c003a00f70f20009c
:101200000758e10044003d000a70a100c75ddd0001
:101210000a8575008a007300090078004f0678007f
:101220004f05be004f04be00000006000a05d100b5
:101230008984d3008b05e800f0ff3700881f780011
:101240000604780090000700070278000001fd0006
:101250008101fd008c000700870278008503720081
:101260000778a300050032000001fd008101fd00a8
:101270009f0007004f0478000000060085037200fd
:101280000748a30003003200f0ff2f00f1ff270002
:10129000f8ff37000000200001f827008880700068
:1012a000f4ff3700880178004848dd008081710034
:1012b0004848de00c850dd0001007000c850de0064
:1012c000060478000b017800160007008880700083
:1012d000d2ff37000500e0000500320017002000b3
:1012e0003a0007009dff370081037000f9ff3a00c4
:1012f000860078004f0678004f05be004f04be0000
:101300000000050083037100f9ff32002700200070
:101310002e00070094ff370001f827008680700038
:10132000f4ff37000100e0002600320061011100e7
:101330007810e10023003c006022b8007010e1004a
:101340000400350080027800010078008000eb0086
:10135000700151000200e000090034007003110028
:10136000062add00822ade008603dd008782720005
:101370000200de00860bdd00070070008208de0040
:1013800084817100f4ff270004826200848171006f
:1013900004002800848262006102600005f0a6005b
:1013a0000000060004827100070032000000e8001f
:1013b000e0804800000006000002be006000b800a7
:1013c000efff37006000b80000000600889fbe00f5
:1013d0000004eb006138e10016003a000100e00073
:1013e00008003a00c800de004800dd008800200048
:1013f0000100e00003003a00c800de004800dd0004
:10140000680444008184cf00e9845400060034005d
:101410008908dd00f08314008703de0087807000f8
:101420000900dd0009044400610214004f04be00fd
:10143000000006000300e00008003a00c811de00ca
:101440004811dd00880020000300e00003003a009e
:10145000c811de004811dd00680444008384cf0019
:10146000e9845400060034008919dd00f08314007b
:101470008713de00878171000911dd000904440033
:10148000e1021400e9ff37002700200001f0a70067
:1014900017002000470bde00f60fb20004003200f8
:1014a0000643e8000a0032004702b30000000600cd
:1014b00001037800f607b2000603700002003a004c
:1014c0000703b300000006008702b3000000060017
:1014d00001037800f607b200060370000200320034
:1014e0000770a000000006000760a00000000600d2
:1014f0000478a300040032000578a3000300320042
:101500000168a30001003a000200be000160a000d3
:101510000000060081017000270032008002eb000d
:1015200001f8a3000300320060001000e080180002
:1015300015002000f40720000202420020003400c1
:10154000f703200087036000060420000003630007
:1015500002082000000161004700de00c909dd002b
:1015600000807100c708de000600e00008003200bd
:1015700087037100060032001000b0000180b00047
:101580000188a30002003200c108de000402e80066
:10159000f107b200f30f20000320e10003003d003b
:1015a0004722dd00810072002900370001f8270082
:1015b0000000eb00260037006000b80000000600c5
:1015c000680212007f20e100020034006000b800d1
:1015d0001f0037006011b8007020e10004003500e2
:1015e00080017800010078008000eb00700252005a
:1015f0000400e00009003400f00312000719dd00c8
:101600008419de000703dd00868171000400de001e
:10161000070bdd00060070008408de00f7ff2700de
:1016200083836300870371000600280003036300bf
:10163000070032000700e00003003a00610160008b
:1016400002817300020032001000b0000180b0007f
:101650000500a6000000060001f0a0000000060042
:101660004f0ade004709de00f107b200f20fb200b8
:101670000b003200f207b1000170a000c708dd00c6
:10168000c901de00838070004700dd000400a60071
:101690000000060060001000e08018000000060056
:1016a000810f700001003a00000006008182cf0027
:1016b0000500e00010003e008082cf00ee82420074
:1016c0007028e1000400390007003e008000780027
:1016d0000000eb000e003700708312008600de0071
:1016e0000500dd000a003700708352008600dd002f
:1016f0000000eb0006003700e28252008508dd00a2
:10170000708312000603de00868070000500dd0095
:101710007507b0000501ea000400a60000000600fd
:1017200060001000e080180000000600889fbe00e6
:101730008a9fbe00841f78006c0007004f0078006d
:1017400011003300f0ff2f00838f6c0006003b0078
:10175000040565000a00a7000800370009f0a6008c
:101760001000200008003700820f5400838f5c00b7
:10177000030039001000200001003e00000020009e
:1017800009f0a7000000ea004f05be004f04be00ac
:101790000000e00000000600889fbe008a9fbe0097
:1017a0000082700004027100048271002600320081
:1017b0000004be000200be006011b8006b092000ea
:1017c000950220000182cf000a0039000541b100d6
:1017d0000082cf00070039000541b1000982cf0027
:1017e000040039000541b1000882cf000100390032
:1017f0000541b10005425200120032000a003b00d0
:1018000082817100610164008100d1000080d300f9
:101810008984d3000884d3008b05e8000442e800e3
:10182000f7ff3a00070037000804440089844c00a1
:1018300000004800818048008b05e9000442e9006f
:10184000f9ff3a00030007004f05be004f04be0039
:101850000000060081002000618055000b003d0063
:101860000b00200061fe2f000100e1001d0034008c
:1018700082817100610164008904d1000884d30071
:101880000000e800faff3a007100200061006400e7
:10189000030070000200600009003200610444008f
:1018a000e0844c000988a500050032008b05e800a3
:1018b0006808e10002003a008904d1000884d300de
:1018c000f20f20000258e10005003d00c75ddd0079
:1018d000f907b20089807500080078000000060052
:1018e0000bf827008b007800000005000004be0004
:1018f00024fc07000003be000405be000200be0079
:0c19000020fc0700844f7500000006006a
:020000040000fa
:0c190c00536100006c75000074000000c6
:020000040000fa
:101918000600fa003b070700c00707001d03070081
:10192800ac040700b7040700e706070082070700b2
:1019380084cea90084aea900848ea900856ea90072
:10194800754ea900040ea900052ea90095eea90060
:10195800054ea900746ea90021070700e14f500049
:1019680005013a002207070019070700000f780051
:101978001e80e800100078008000eb00fdfb0700e7
:101988003233230033052400defd07000001780010
:10199800010078008202780000027800020020002e
:1019a8000358240005007800840078000000be0079
:1019b800f5fc070010079800210798001e01900009
:1019c800ae0190000000200081202400eefc0700fa
:1019d8000001780001007800820278000002780097
:1019e80002002000030a2400050078008400780023
:1019f8000000be00f6fb07008001780001017800b6
:101a080003007800820078000000be00f08588009e
:101a180001868800410020001e80400010007800e8
:101a28008000eb00d3fb070032332300330524008a
:101a3800b4fd0700000178000100780082027800f8
:101a480000027800020020000358240005007800f6
:101a5800840078000000be00cbfc07001007980047
:101a6800210798001e019000ae01900000002000a0
:101a780081202400c4fc07000001780001007800e0
:101a8800820278000002780002002000030a240085
:101a980005007800840078000000be00ccfb070039
:101aa8008001780001017800030078008200780046
:101ab8000000be00d0858800e18588006100200014
:101ac8001e804000100078008000eb00a9fb070092
:101ad80032332300330524008afd07000001780013
:101ae80001007800820278000002780002002000dd
:101af8000358240005007800840078000000be0028
:101b0800a1fc070010079800210798001e0190000b
:101b1800ae01900000002000812024009afc0700fc
:101b28000001780001007800820278000002780045
:101b380002002000030a24000500780084007800d1
:101b48000000be00a2fb07008001780001017800b8
:101b580003007800820078000000be00b08588008d
:101b6800c18588001e007800100078008000eb0016
:101b780080fb0700323323003305240061fd070092
:101b880000017800010078008202780000027800e5
:101b98000200200003582400050078008400780023
:101ba8000000be0078fc0700100798002107980085
:101bb8001e019000ae01900000002000812024004a
:101bc80071fc0700000178000100780082027800ab
:101bd8000002780002002000030a240005007800b3
:101be800840078000000be0079fb070080017800bf
:101bf8000101780003007800820078000000be0030
:101c08003086880041868800810020001e804000c0
:101c1800100078008000eb0056fb070032332300e9
:101c28003305240037fd0700000178000100780023
:101c38008202780000027800020020000358240085
:101c480005007800840078000000be004efc070004
:101c580010079800210798001e019000ae0190001f
:101c6800000020008120240047fc070000017800c4
:101c7800010078008202780000027800020020004b
:101c8800030a240005007800840078000000be00e4
:101c98004ffb0700800178000101780003007800fd
:101ca800820078000000be00108688002186880027
:101cb800f085800001868000f2fa07000080880025
:101cc800d0858000e1858000eefa0700108088004a
:101cd800b0858000c1858000eafa0700208088006e
:101ce8003086800041868000e6fa07003080880050
:101cf8001086800021868000e2fa07004080880074
:101d080000808000fd0f500002003c0084aea80057
:101d18000100370084aea90010808000fd0f50003c
:101d280002003c00848ea80001003700848ea900c0
:101d380020808000fd0f500002003c00856ea80046
:101d480001003700856ea90030808000fd0f50002b
:101d580002003c0084cea8000100370084cea90010
:101d680040808000fd0f500002003c00754ea80026
:101d780001003700754ea9005100200060c82800f6
:101d880086060700f4fe37000000fa00d2808000c3
:101d9800e380800000a62e0001002000800f510083
:101da800818f59000c0036000041eb006000b8003c
:101db800ae04070012c0b3006000b800ab0407000f
:101dc800040ea900052ea90095eea900054ea9004c
:101dd800746ea9009a0037000ad0bf000080fb008b
:101de8006100b9005201200003002000820f50005a
:101df800838f58008f003e00000601001500370051
:101e08001c003700250037002f003700300037004e
:101e18003a0037003b0037004500370060003700c4
:101e28006a0037006b003700750037008100370003
:101e3800800037007f0037007e0037003e00370003
:101e48004a00370047003700530037007900370051
:101e58006d0037000041eb006000b8008304070004
:101e680012c0b3006000b8008004070010c0b300bf
:101e78000af0b700d2808000e3808000803e200016
:101e880001002000800f5100818f59006b0036003f
:101e980020c0b3000af0b700680037000041eb002b
:101ea80000002000011f2c007004070012c0b300be
:101eb80000002000011f24006c04070030c0b3009c
:101ec8000af0b7005e003700600007005c003700ca
:101ed8000041eb000000200001172c0063040700fc
:101ee80012c0b3000000200001172c005f04070097
:101ef80050c0b3000af0b700510037005300070084
:101f08004f0037000041eb000000200001172400bb
:101f18005604070012c0b300000020000117240077
:101f28005204070070c0b3000af0b700440037003d
:101f380046000700420037000041eb000000200087
:101f4800010f24004904070012c0b300000020005c
:101f5800010f24004504070020c1b3000af0b700b0
:101f68003700370039000700350037000041eb0023
:101f780000002000010f2c003c04070012c0b30031
:101f880000002000010f2c003804070030c1b30006
:101f98000af0b7002a0037002c0007002800370095
:101fa8000041eb0000002000010f2c002f04070067
:101fb80012c0b30000002000010f2c002b04070002
:101fc80090c0b3000af0b7001d0037001f000700db
:101fd8001b0037000041eb0000002000010f240027
:101fe8002204070012c0b30000002000010f2400e3
:101ff8001e040700b0c0b3000af0b7001000370095
:10200800120007000e0037000041eb00000020001e
:1020180001172c001504070012c0b30000002000af
:10202800011724001104070030c0b3000af0b700fc
:10203800030037000a70ef000100370000000000bd
:10204800000000000080fa00000006000200fa000c
:10205800889fbe000040eb00004f7800b0858000ec
:10206800c185800002002000031f240001fa070038
:102078000000e00018003d00d0858000e185800068
:1020880002002000031f2400fcf907000000e00004
:1020980011003400f08580000186800002002000d5
:1020a800031f2400f5f907000000e0000a003400cf
:1020b800108680002186800002002000031a240078
:1020c800eef907000000e0000300340020c0b30070
:1020d800004f7800e2003700b0858000c18580009d
:1020e80002002000031f2400e2f907000000e000be
:1020f80018003d00d0858000e185800002002000a6
:10210800031f2400ddf907000000e000110034007f
:10211800f08580000186800002002000031f240053
:10212800d6f907000000e0000a003400108680009d
:102138002186800002002000031a2400cdf9070040
:102148000000e00003003d0040c0b300004f7800ed
:10215800c3003700b0858000c185800002002000e0
:10216800031f2400c5f907000000e0001800340030
:10217800d0858000e185800002002000031f240034
:10218800bef907000000e00011003400f08580006f
:102198000186800002002000031f2400b5f9070013
:1021a8000000e0000a003d00308680004186800083
:1021b80002002000031a2400b0f907000000e00024
:1021c8000300340010c0b300004f7800a4003700ab
:1021d800b0858000c185800002002000031f240014
:1021e800a6f907000000e00018003400d085800040
:1021f800e185800002002000031f24009ff90700ea
:102208000000e00011003400f085800001868000a5
:1022180002002000031f240096f907000000e000d8
:102228000a003d00308680004186800002002000c0
:10223800031a24008ff907000000e00003003d00a6
:1022480050c0b300004f780085003700b08580008b
:10225800c185800002002000031f240087f90700c1
:102268000000e00018003400d0858000e18580007f
:1022780002002000031f240080f907000000e0008e
:1022880011003400f08580000186800002002000e3
:10229800031f240079f907000000e0000a00340059
:1022a800108680002186800002002000031a240086
:1022b80070f907000000e00003003d0060c0b300b3
:1022c800004f780066003700b0858000c185800027
:1022d80002002000031f240068f907000000e00046
:1022e80018003400d0858000e185800002002000bd
:1022f800031f240061f907000000e000110034000a
:10230800f08580000186800002002000031f240061
:102318005af907000000e0000a0034003086800007
:102328004186800002002000031a240051f90700aa
:102338000000e00003003d0070c0b300004f7800cb
:1023480047003700d0858000e1858000020020002a
:102358004323240047f907000000e00003003d0084
:1023680030c0b300004f78003d003700b0858000d2
:10237800c185800002002000031f24003ff90700e8
:102388000000e00011003400d0858000e185800065
:1023980002002000031f240038f907000000e000b5
:1023a8000a003400f08580000186800002002000c9
:1023b800031f240031f907000000e0000300340087
:1023c8000040eb00004f780025003700b085800002
:1023d800c185800002002000031f240027f90700a0
:1023e8000000e0001e003400d0858000e1858000f8
:1023f80002002000031f240020f907000000e0006d
:1024080017003400f085800001868000020020005b
:10241800031f240019f907000000e0001000340031
:10242800108680002186800002002000031f2400ff
:1024380010f907000000e00009003d003086800028
:102448004186800002002000031f240009f90700cc
:102458000000e00002003d0090c0b300004f78008b
:102468001e4078000004e00003003a0020c0b300da
:102478000bf0b700390037001e407800e24f5000db
:1024880003003a0040c0b3000bf0b7003300370038
:102498001e407800e44f500003003a0040c0b300eb
:1024a8000bf0b7002d0037001e407800e14f5000b8
:1024b80003003a0060c0b3000bf0b70027003700f4
:1024c8001e407800e54f500003003a0060c0b3009a
:1024d8000bf0b700210037001e407800e34f500092
:1024e8000d003a00d1808000e080800061846000a7
:1024f800e0046000e00f5400e08f5c0003003a0045
:1025080080c0b3000bf0b70014003700a0c0b300c0
:102518000bf0b700110037001e407800e64f50005e
:1025280003003a0010c1b3000bf0b7000b003700ee
:102538001e407800e74f500003003a0000c1b30086
:102548000bf0b700050037001e407800e94f500037
:1025580002003a0050c1b3000bf0b7000bd0bf0027
:102568000080fb00a1002100914078008180fb00e1
:102578008100e900810f5000020032000bd0bf003b
:102588000af0b700000000004f04be000080fa0007
:10259800000006000000fa0005e1a9000421a900d6
:1025a8000068a9002068a80005e1a8000000200034
:1025b800a13f24001d000700000000000080fa0071
:1025c800000006000000fa0013e1a90011e1a900cb
:1025d8001061a8001021a900800880000040a10017
:1025e8000050a100800888000a21ef000621ef00b2
:1025f800707220007008880000e0200060088800e1
:10260800204280000000a0000010a1000020a100ce
:10261800204288000108a9002108a80011e1a800ab
:10262800000000000080fa00000006000400fa0024
:10263800008fbe00200880000040a1000050a100cb
:10264800200888001e0178009e019000001c2e00c2
:1026580041c62400ccf90700000178000100780089
:10266800820278000002780002f02f00f37724003d
:1026780005007800840078000000be007ff807009d
:102688000000e0008d003400200880000040a00019
:102698000050a100200888001e0178009e019000cb
:1026a800001c2e0041c62400b7f90700000178007d
:1026b8000100780082027800000278000200200001
:1026c8000310240005007800840078000000be0094
:1026d800adf9070000017800010078008202780057
:1026e8000002780002f02f00f3772400050078003c
:1026f800840078000000be0060f807000000e000d9
:1027080055003400200880000040a1000050a000bf
:10271800200888001e0178009e019000001c2e00f1
:1027280041c6240098f907000001780001007800ec
:1027380082027800000278000200200003282400aa
:1027480005007800840078000000be008ef90700bc
:102758000001780001007800820278000002780009
:1027680002f02f00f3772400050078008400780039
:102778000000be0041f807000000e0001d00340022
:10278800200880000040a0000050a0002008880019
:102798001e0178009e019000001c2e0041c62400f6
:1027a80079f90700000178000100780082027800ba
:1027b8000002780002002000033824000500780099
:1027c800840078000000be006ff90700000178005f
:1027d8000100780082017800000178000300780089
:1027e800820078000000be0026f807001008880064
:1027f800400037001e0178009e019000001c2e004a
:1028080041c6240060f90700000178000100780043
:1028180082027800000278000200200003282400c9
:1028280005007800840078000000be0056f9070013
:10283800000178000100780082017800000178002a
:1028480003007800820078000000be000df8070041
:1028580010088800270037001e0178009e019000ac
:10286800001c2e0041c6240047f90700000178002b
:10287800010078008202780000027800020020003f
:102888000310240005007800840078000000be00d2
:102898003df9070000017800010078008201780006
:1028a8000001780003007800820078000000be0074
:1028b800f4f70700100888000e0037001e017800a2
:1028c8009e019000001c2e0041c624002ef907002e
:1028d800000178000100780082017800000178008a
:1028e80003007800820078000000be00e5f70700ca
:1028f80010088800000000000080fa0000000600b0
:102908000400fa00008fbe00f00880000040a1001b
:102918000050a100f00888001e0178009e01900078
:10292800001c2e0041c6240017f90700000178009a
:1029380001007800820278000002780002f02f007f
:10294800f377240005007800840078000000be00ba
:10295800caf707000000e0008d003400f00880008e
:102968000040a0000050a100f00888001e01780077
:102978009e019000001c2e0041c6240002f90700a9
:1029880000017800010078008202780000027800d7
:10299800020020000310240005007800840078005d
:1029a8000000be00f8f80700000178000100780078
:1029b800820278000002780002f02f00f3772400ea
:1029c80005007800840078000000be00abf707001f
:1029d8000000e00055003400f00880000040a1002d
:1029e8000050a000f00888001e0178009e019000a9
:1029f800001c2e0041c62400e3f8070000017800ff
:102a080001007800820278000002780002002000ad
:102a18000328240005007800840078000000be0028
:102a2800d9f80700000178000100780082027800d8
:102a38000002780002f02f00f377240005007800e8
:102a4800840078000000be008cf707000000e0005a
:102a58001d003400f00880000040a0000050a000d5
:102a6800f00888001e0178009e019000001c2e00ce
:102a780041c62400c4f8070000017800010078006e
:102a88008202780000027800020020000338240047
:102a980005007800840078000000be00baf807003e
:102aa80000017800010078008201780000017800b8
:102ab80003007800820078000000be0071f707006c
:102ac800d0088800400037001e0178009e01900061
:102ad800001c2e0041c62400abf807000001780056
:102ae80001007800820278000002780002002000cd
:102af8000328240005007800840078000000be0048
:102b0800a1f8070000017800010078008201780030
:102b18000001780003007800820078000000be0001
:102b280058f70700d0088800270037001e017800f2
:102b38009e019000001c2e0041c6240092f8070058
:102b48000001780001007800820278000002780015
:102b5800020020000310240005007800840078009b
:102b68000000be0088f80700000178000100780026
:102b78008201780000017800030078008200780064
:102b88000000be003ff70700d00888000e0037009d
:102b98001e0178009e019000001c2e0041c62400f2
:102ba80079f80700000178000100780082017800b8
:102bb8000001780003007800820078000000be0061
:102bc80030f70700d0088800000000000080fa00f5
:102bd800000006000000fa001fe1a9001e21a9005c
:102be8000368a9002368a8001fe1a80000002000ce
:102bf800a147240042ff0700000000000080fa00ff
:102c0800000006000000fa0002ccbf000000a1008e
:102c18000010a1000020a10002ecb70000962000df
:102c2800206088001061800000a0a00000b0a00013
:102c38001061880023cca80023eca80030002000f5
:102c4800206188001062800000a0a00000b0a000f1
:102c58001062880043cca80043eca8003000200094
:102c68002062880001eca800000000000080fa0043
:102c7800000006000000fa00889fbe0094858000ce
:102c8800a585800070858000818580000001be00d8
:102c98000400be00f7f607000000e00014003d0045
:102ca800788580008985800094858000a5858000ce
:102cb80060808000718080000001be000400be00ba
:102cc8004cf70700000178000100780082027800c4
:102cd800000278000801be00050078008400780032
:102ce8000000be001f01070090858800a1858800ac
:102cf80094858000a585800070858000818580008e
:102d08000001be000400be00dcf607000000e00081
:102d180014003400788580008985800094858000bf
:102d2800a585800060808000718080000001be0061
:102d38000400be0026f707000001780001007800b3
:102d480082027800000278000801be0005007800c1
:102d5800840078000000be00eb0007009085880022
:102d6800a185880090858000a18580006011b80049
:102d7800c2f607000000e0001e00350090858000c4
:102d8800a185800002002000031c2400ddf8070054
:102d980000017800010078008202780000027800c3
:102da80080808000918080000001be0005007800ce
:102db800840078000000be000ef7070000017800cc
:102dc8000100780082017800000178000300780093
:102dd800820078000000be00cbf607003062880051
:102de8008080800091808000c7f6070070628800ac
:102df8001e0037008080800091808000c2f60700a6
:102e08003062880090858000a185800001f0a200d2
:102e180002002000031c2400baf807000001780013
:102e2800010078008202780000027800808080002b
:102e3800918080000001be000500780084007800c1
:102e48000000be00ebf607000001780001007800e2
:102e58008201780000017800030078008200780081
:102e68000000be00a8f60700706288005485800044
:102e78006585800030858000418580000001be00a6
:102e88000400be007bf607000000e00014003d00cf
:102e980038858000498580005485800065858000dc
:102ea80060808000718080000001be000400be00c8
:102eb800d0f607000001780001007800820278004f
:102ec800000278000801be00050078008400780040
:102ed8000000be00a30007005085880061858800b7
:102ee800548580006585800030858000418580009c
:102ef8000001be000400be0060f607000000e0000c
:102f0800140034003885800049858000548580008d
:102f18006585800060808000718080000001be00af
:102f28000400be00aaf6070000017800010078003e
:102f380082027800000278000801be0005007800cf
:102f4800840078000000be006f00070050858800ec
:102f58006185880050858000618580006011b80017
:102f680046f607000000e0001e003400508580008f
:102f78006185800002002000031c240061f807001e
:102f880000017800010078008202780000027800d1
:102f980080808000918080000001be0005007800dc
:102fa800840078000000be0092f607000001780057
:102fb80001007800820178000001780003007800a1
:102fc800820078000000be004ff6070030618800dc
:102fd80080808000918080004bf607007061880037
:102fe8001e003700808080009180800046f6070030
:102ff80030618800508580006185800001f0a20062
:1030080002002000031c24003ef80700000178009d
:103018000100780082027800000278008080800039
:10302800918080000001be000500780084007800cf
:103038000000be006ff6070000017800010078006c
:10304800820178000001780003007800820078008f
:103058000000be002cf60700706188000000000028
:103068004f04be000080fa00000006000600fa00c7
:10307800008fbe00424798004e409000e14f50003c
:1030880005003a001e0178009e01900032858800f4
:1030980043858800040037001e0178009e019000d7
:1030a8007285880083858800000000000080fa008f
:1030b800000006000400fa00008fbe006011b8008e
:1030c8001e0078009e009000ecf507000000e0006c
:1030d800030035001e0078009e00900003003700b2
:1030e8001e0078009e00900001f0a2008001780088
:1030f8000101780003007800820078000000be001b
:103108000080fa00000006000800fa00008fbe00e8
:1031180022079800330798002e019000be01900006
:103128001e0078009e009000d4f507000000e00023
:10313800030034009e0078001e0090000200370053
:10314800ae0090003e0090008101780000017800f8
:1031580003007800820078000000be000080fa00ba
:10316800000006000800fa00008fbe002207980041
:10317800330798002e019000be0190001e007800d1
:103188009e009000bbf507000000e00003003d0032
:103198009e0078001e00900002003700ae009000ec
:1031a8003e0090008101780000017800030078005b
:1031b800820078000000be000080fa0000000600cf
:1031c8000c00fa00008fbe00220798003307980011
:1031d80044079800550798004e019000de019000c2
:1031e8001e0078009e009000a4f507000000e00093
:1031f800040034004e019000de019000028fbe00f2
:103208000a0037002e019000be0190001e007800d1
:103218009e00900097f507000000e00003003d00c5
:103228002e019000be019000028fbe009e00780023
:103238001e009000810178000001780003007800ea
:10324800820078000000be000080fa00000006003e
:103258000400fa00008fbe00b2fd20009304240091
:103268001e0078009e009000c7f607000001780055
:103278000100780082027800000278000200200035
:103288004333240005007800840078000000be0065
:103298009cf70700000178000100780082007800a0
:1032a800810178000001780003007800820078002e
:1032b8000000be000080fa00000006000400fa00ca
:1032c800008fbe00b2fd2000930424001e00780089
:1032d8009e0090008bf7070000017800010078003d
:1032e80082027800000278000200200043332400a4
:1032f80005007800840078000000be00a2f60700f0
:1033080000017800010078008200780081017800cf
:103318000001780003007800820078000000be00f9
:103328000080fa00000006000600fa001007980066
:10333800210798000040eb00004f78005b00070071
:10334800ae009000808f500013003d000040eb005d
:10335800004f7800080037001e80fb008e80e800d0
:1033680011004000104078000e0007001e40780051
:103378000040e800004f78001e80fb00ae0090007f
:10338800808f5000f4ff3c00310007000004e0008b
:1033980001003a0024000700000000000080fa0045
:1033a800000006000200fa00004f7800a1808000ab
:1033b80040022100010040001e487800a0808000e3
:1033c8000000e800a0808800a1808000f0072000ad
:1033d800808f5000010034001430ef00000000001e
:1033e8000080fa00000006000200fa00b1808000a8
:1033f8004002210001004000104f7800b08080009a
:103408000000e800b0808800b1808000f00720004c
:10341800808f5000010034001630ef001e40780005
:103428000080fa00000006000200fa0010c0b30095
:1034380018f0b700ecff0700004f78001e80fb0073
:1034480020118800000000000080fa00000006003b
:103458000000fa0018d0bf000080fa000000060043
:103468000200fa00a1808000b0808000808f5000a8
:1034780005003400a1808000b080800000805000ea
:10348800000f780006003700b1808000a08080001f
:10349800808050000008200001005000000f7800d4
:1034a8001e0078000080fa00000006000000fa0004
:1034b800ebff0700800078000008200001005000a2
:1034c8000080fa00000006000000fa0021e3a900cd
:1034d8002143a800001980000080a1000090a100ed
:1034e800001988002043a900001980000050a0009e
:1034f8000060a0000070a00000198800101980006a
:1035080000d0a10000e0a10000f0a100101988007f
:103518002343a800101980000080a1000090a1009a
:10352800101988001119800030f82f000080600001
:103538000040a000101988002203a9002223a90036
:1035480025e3a900f0c0b30024e3b70021198000e7
:10355800f00f2e008080600000f020000100700055
:10356800201988003303a9001e0ea8001f0ea8000a
:103578001f2ea8001f4ea8001f6ea8003003a80029
:103588003103a8003123a8003143a8003163a80003
:103598004119800000fe2f0000806000401988005b
:1035a80028e3a90001a8a90021a8a80021e3a800f0
:1035b800000000000080fa00000006000000fa0089
:1035c8002023a800000000000080fa000000060088
:1035d8000000fa00a00c21000080fa00000006009c
:1035e8000000fa0021d0bf000080fa0000000600a9
:1035f8000000fa002170ef00000000000080fa00cf
:10360800000006000000fa00817420009140780054
:1036180000ccb30000c060007041b30048e7b700b9
:10362800313a800000e02f00808060008005200093
:1036380001007000303a8800203a80000060a10044
:103648000070a100203a8800213a800000fe2f0077
:10365800008060000000a000203a880012002000ce
:1036680080072000a10920003374200080497800d9
:103678008149780082497800103a8000000178007a
:103688000200a000600420007105200023742000bf
:10369800804978008149780082497800000000005c
:1036a800103a80004c00de0067406000e14f500097
:1036b800fbff3a005927a800c03a80000000a0008c
:1036c8000010a1000020a100c03a88005ac7bf001e
:1036d8000000a0000010a0000020a0005ae7b700da
:1036e800c03a80000050a1000060a0000070a00057
:1036f800c03a880059a7a80059e7a80000000000b0
:10370800c03a80004e00de0061406000e14f50008a
:10371800fbff3a0000000000103a80004500de0080
:1037280061406000e14f5000fbff3a0000000000dc
:103738000080fa00000006000000fa002002a9003c
:10374800001180000010a1000020a10000118800d5
:1037580020a2a9002062a8001008200040118800bb
:1037680023a2a90023e2a9000188a9002188a900b1
:10377800101180000060a1000070a10010118800e5
:103788000168a9002168a80021e2a8002342a80036
:10379800000000000080fa00000006000600fa00a1
:1037a80010079800210798000040eb00004f7800b0
:1037b8000040eb00004f78001100370000000000c7
:1037c800101180004900de00614060000004e00044
:1037d800fbff3a009e0090000e80e8000108e80018
:1037e8001001780012079800114078000080fb0053
:1037f800201188001e4078000040e800004f780043
:103808001e80fb00ae009000808f5000ebff3c0054
:10381800000000000080fa00000006000000fa0026
:103828000e2eef001e2eef003e2eef002e2eef0084
:103838004e2eef006e2eef0080cea90080aea900bc
:10384800808ea900816ea900714ea90091eea90091
:10385800000ea900012ea900014ea900706ea90052
:10386800722ea900190007002136800000f82f00e9
:1038780080806000e004200001007000203688008d
:103888004134800000fc2f00008060000000a00090
:103898004034880003000700000000000080fa00a0
:1038a800000006000000fa002174200062042000d5
:1038b80073052000824878008348780042c7a80032
:1038c800000000000080fa00000006000000fa0076
:1038d80021742000620420007305200082487800cb
:1038e8008348780042c7a900000000000080fa0061
:0438f80000000600c6
:020000040000fa
:1038fc00001000000c000000800000001e100000f2
:10390c0002000000800000001a10000004000000fb
:10391c0082000000a086010000000000a41000003e
:10392c0026000000800000000c10000008000000c1
:10393c0082000000000080003f00000048420000b0
:10394c00ca1000000a0000008000000020100000d7
:10395c000200000080000000241000008000000025
:10396c008000000014100000060000008000000021
:10397c002210000002000000800000000000000087
:020000040000fa
:0200000401f009
:04000800cfffff0027
:020000040000fa
:0200000401f009
:04000c00f9ffff00f9
:020000040000fa
:0200000401f009
:040010005bffff0093
:020000040000fa
:0200000401f009
:040014007fffff006b
:020000040000fa
:0200000401f009
:04001800cfffff0017
:020000040000fa
:0200000401f009
:04001c00deffff0004
:020000040000fa
:0200000401f009
:04002000cfffff000f
:00000001FF
